{
  "_format": "hh-sol-artifact-1",
  "contractName": "Voting",
  "sourceName": "contracts/Voting.sol",
  "abi": [
    {
      "anonymous": false,
      "inputs": [
        {
          "indexed": true,
          "internalType": "address",
          "name": "member",
          "type": "address"
        },
        {
          "indexed": false,
          "internalType": "uint256",
          "name": "joinedAt",
          "type": "uint256"
        }
      ],
      "name": "MemberJoined",
      "type": "event"
    },
    {
      "anonymous": false,
      "inputs": [
        {
          "indexed": true,
          "internalType": "address",
          "name": "owner",
          "type": "address"
        },
        {
          "indexed": true,
          "internalType": "uint256",
          "name": "voteId",
          "type": "uint256"
        },
        {
          "indexed": true,
          "internalType": "uint256",
          "name": "createdAt",
          "type": "uint256"
        },
        {
          "indexed": false,
          "internalType": "uint256",
          "name": "endTime",
          "type": "uint256"
        }
      ],
      "name": "VoteCreated",
      "type": "event"
    },
    {
      "anonymous": false,
      "inputs": [
        {
          "indexed": true,
          "internalType": "address",
          "name": "voter",
          "type": "address"
        },
        {
          "indexed": true,
          "internalType": "uint256",
          "name": "voteId",
          "type": "uint256"
        },
        {
          "indexed": true,
          "internalType": "uint256",
          "name": "option",
          "type": "uint256"
        },
        {
          "indexed": false,
          "internalType": "uint256",
          "name": "createdAt",
          "type": "uint256"
        }
      ],
      "name": "Voted",
      "type": "event"
    },
    {
      "inputs": [
        {
          "internalType": "string",
          "name": "uri",
          "type": "string"
        },
        {
          "internalType": "uint256",
          "name": "endTime",
          "type": "uint256"
        },
        {
          "internalType": "uint256",
          "name": "options",
          "type": "uint256"
        }
      ],
      "name": "createVote",
      "outputs": [],
      "stateMutability": "nonpayable",
      "type": "function"
    },
    {
      "inputs": [
        {
          "internalType": "address",
          "name": "member",
          "type": "address"
        },
        {
          "internalType": "uint256",
          "name": "voteId",
          "type": "uint256"
        }
      ],
      "name": "didVote",
      "outputs": [
        {
          "internalType": "bool",
          "name": "",
          "type": "bool"
        }
      ],
      "stateMutability": "view",
      "type": "function"
    },
    {
      "inputs": [
        {
          "internalType": "uint256",
          "name": "voteId",
          "type": "uint256"
        }
      ],
      "name": "getVote",
      "outputs": [
        {
          "internalType": "string",
          "name": "",
          "type": "string"
        },
        {
          "internalType": "address",
          "name": "",
          "type": "address"
        },
        {
          "internalType": "uint256[]",
          "name": "",
          "type": "uint256[]"
        },
        {
          "internalType": "uint256",
          "name": "",
          "type": "uint256"
        }
      ],
      "stateMutability": "view",
      "type": "function"
    },
    {
      "inputs": [],
      "name": "join",
      "outputs": [],
      "stateMutability": "nonpayable",
      "type": "function"
    },
    {
      "inputs": [
        {
          "internalType": "address",
          "name": "",
          "type": "address"
        }
      ],
      "name": "members",
      "outputs": [
        {
          "internalType": "bool",
          "name": "",
          "type": "bool"
        }
      ],
      "stateMutability": "view",
      "type": "function"
    },
    {
      "inputs": [
        {
          "internalType": "uint256",
          "name": "voteId",
          "type": "uint256"
        },
        {
          "internalType": "uint256",
          "name": "option",
          "type": "uint256"
        }
      ],
      "name": "vote",
      "outputs": [],
      "stateMutability": "nonpayable",
      "type": "function"
    }
  ],
  "bytecode": "0x608060405234801561001057600080fd5b5061178c806100206000396000f3fe608060405234801561001057600080fd5b50600436106100625760003560e01c8063029fc3e81461006757806308ae4b0c146100835780635a55c1f0146100b3578063b384abef146100e6578063b688a36314610102578063bda088d41461010c575b600080fd5b610081600480360381019061007c9190610c72565b61013c565b005b61009d60048036038101906100989190610d3f565b6103f0565b6040516100aa9190610d87565b60405180910390f35b6100cd60048036038101906100c89190610da2565b610410565b6040516100dd9493929190610f2a565b60405180910390f35b61010060048036038101906100fb9190610f7d565b61057f565b005b61010a6108d8565b005b61012660048036038101906101219190610fbd565b610a0d565b6040516101339190610d87565b60405180910390f35b600260003373ffffffffffffffffffffffffffffffffffffffff1673ffffffffffffffffffffffffffffffffffffffff16815260200190815260200160002060009054906101000a900460ff166101c8576040517f08c379a00000000000000000000000000000000000000000000000000000000081526004016101bf90611049565b60405180910390fd5b600281101580156101da575060088111155b610219576040517f08c379a0000000000000000000000000000000000000000000000000000000008152600401610210906110db565b60405180910390fd5b42821161025b576040517f08c379a000000000000000000000000000000000000000000000000000000000815260040161025290611147565b60405180910390fd5b600080549050836001600083815260200190815260200160002060000190816102849190611373565b50336001600083815260200190815260200160002060010160006101000a81548173ffffffffffffffffffffffffffffffffffffffff021916908373ffffffffffffffffffffffffffffffffffffffff1602179055508260016000838152602001908152602001600020600201819055508160016000838152602001908152602001600020600501819055508167ffffffffffffffff81111561032a57610329610b11565b5b6040519080825280602002602001820160405280156103585781602001602082028036833780820191505090505b50600160008381526020019081526020016000206003019080519060200190610382929190610a78565b5042813373ffffffffffffffffffffffffffffffffffffffff167f665ef0592b007345b8682bb42a5cae81579ec1765a7939bb3ae4c4667e467f9c866040516103cb9190611445565b60405180910390a46000808154809291906103e59061148f565b919050555050505050565b60026020528060005260406000206000915054906101000a900460ff1681565b6060600060606000600160008681526020019081526020016000206000016001600087815260200190815260200160002060010160009054906101000a900473ffffffffffffffffffffffffffffffffffffffff1660016000888152602001908152602001600020600301600160008981526020019081526020016000206002015483805461049e90611196565b80601f01602080910402602001604051908101604052809291908181526020018280546104ca90611196565b80156105175780601f106104ec57610100808354040283529160200191610517565b820191906000526020600020905b8154815290600101906020018083116104fa57829003601f168201915b505050505093508180548060200260200160405190810160405280929190818152602001828054801561056957602002820191906000526020600020905b815481526020019060010190808311610555575b5050505050915093509350935093509193509193565b600260003373ffffffffffffffffffffffffffffffffffffffff1673ffffffffffffffffffffffffffffffffffffffff16815260200190815260200160002060009054906101000a900460ff1661060b576040517f08c379a000000000000000000000000000000000000000000000000000000000815260040161060290611049565b60405180910390fd5b81816000548210610651576040517f08c379a000000000000000000000000000000000000000000000000000000000815260040161064890611523565b60405180910390fd5b600160008381526020019081526020016000206005015481106106a9576040517f08c379a00000000000000000000000000000000000000000000000000000000081526004016106a09061158f565b60405180910390fd5b6001600083815260200190815260200160002060040160003373ffffffffffffffffffffffffffffffffffffffff1673ffffffffffffffffffffffffffffffffffffffff16815260200190815260200160002060009054906101000a900460ff161561074a576040517f08c379a0000000000000000000000000000000000000000000000000000000008152600401610741906115fb565b60405180910390fd5b60016000838152602001908152602001600020600201544211156107a3576040517f08c379a000000000000000000000000000000000000000000000000000000000815260040161079a90611667565b60405180910390fd5b600180600086815260200190815260200160002060030184815481106107cc576107cb611687565b5b90600052602060002001546107e191906116b6565b60016000868152602001908152602001600020600301848154811061080957610808611687565b5b9060005260206000200181905550600180600086815260200190815260200160002060040160003373ffffffffffffffffffffffffffffffffffffffff1673ffffffffffffffffffffffffffffffffffffffff16815260200190815260200160002060006101000a81548160ff02191690831515021790555082843373ffffffffffffffffffffffffffffffffffffffff167fc32b42768a47a585121e9b8d7a2ab9d3f34c326a192dee11ee1732e3d18313f3426040516108ca9190611445565b60405180910390a450505050565b600260003373ffffffffffffffffffffffffffffffffffffffff1673ffffffffffffffffffffffffffffffffffffffff16815260200190815260200160002060009054906101000a900460ff1615610965576040517f08c379a000000000000000000000000000000000000000000000000000000000815260040161095c90611736565b60405180910390fd5b6001600260003373ffffffffffffffffffffffffffffffffffffffff1673ffffffffffffffffffffffffffffffffffffffff16815260200190815260200160002060006101000a81548160ff0219169083151502179055503373ffffffffffffffffffffffffffffffffffffffff167f7f3b9effe05cfb4f31f854004de03199fd03fe56bf38a48b2aa9a9f4402d6e2342604051610a039190611445565b60405180910390a2565b60006001600083815260200190815260200160002060040160008473ffffffffffffffffffffffffffffffffffffffff1673ffffffffffffffffffffffffffffffffffffffff16815260200190815260200160002060009054906101000a900460ff16905092915050565b828054828255906000526020600020908101928215610ab4579160200282015b82811115610ab3578251825591602001919060010190610a98565b5b509050610ac19190610ac5565b5090565b5b80821115610ade576000816000905550600101610ac6565b5090565b6000604051905090565b600080fd5b600080fd5b600080fd5b600080fd5b6000601f19601f8301169050919050565b7f4e487b7100000000000000000000000000000000000000000000000000000000600052604160045260246000fd5b610b4982610b00565b810181811067ffffffffffffffff82111715610b6857610b67610b11565b5b80604052505050565b6000610b7b610ae2565b9050610b878282610b40565b919050565b600067ffffffffffffffff821115610ba757610ba6610b11565b5b610bb082610b00565b9050602081019050919050565b82818337600083830152505050565b6000610bdf610bda84610b8c565b610b71565b905082815260208101848484011115610bfb57610bfa610afb565b5b610c06848285610bbd565b509392505050565b600082601f830112610c2357610c22610af6565b5b8135610c33848260208601610bcc565b91505092915050565b6000819050919050565b610c4f81610c3c565b8114610c5a57600080fd5b50565b600081359050610c6c81610c46565b92915050565b600080600060608486031215610c8b57610c8a610aec565b5b600084013567ffffffffffffffff811115610ca957610ca8610af1565b5b610cb586828701610c0e565b9350506020610cc686828701610c5d565b9250506040610cd786828701610c5d565b9150509250925092565b600073ffffffffffffffffffffffffffffffffffffffff82169050919050565b6000610d0c82610ce1565b9050919050565b610d1c81610d01565b8114610d2757600080fd5b50565b600081359050610d3981610d13565b92915050565b600060208284031215610d5557610d54610aec565b5b6000610d6384828501610d2a565b91505092915050565b60008115159050919050565b610d8181610d6c565b82525050565b6000602082019050610d9c6000830184610d78565b92915050565b600060208284031215610db857610db7610aec565b5b6000610dc684828501610c5d565b91505092915050565b600081519050919050565b600082825260208201905092915050565b60005b83811015610e09578082015181840152602081019050610dee565b60008484015250505050565b6000610e2082610dcf565b610e2a8185610dda565b9350610e3a818560208601610deb565b610e4381610b00565b840191505092915050565b610e5781610d01565b82525050565b600081519050919050565b600082825260208201905092915050565b6000819050602082019050919050565b610e9281610c3c565b82525050565b6000610ea48383610e89565b60208301905092915050565b6000602082019050919050565b6000610ec882610e5d565b610ed28185610e68565b9350610edd83610e79565b8060005b83811015610f0e578151610ef58882610e98565b9750610f0083610eb0565b925050600181019050610ee1565b5085935050505092915050565b610f2481610c3c565b82525050565b60006080820190508181036000830152610f448187610e15565b9050610f536020830186610e4e565b8181036040830152610f658185610ebd565b9050610f746060830184610f1b565b95945050505050565b60008060408385031215610f9457610f93610aec565b5b6000610fa285828601610c5d565b9250506020610fb385828601610c5d565b9150509250929050565b60008060408385031215610fd457610fd3610aec565b5b6000610fe285828601610d2a565b9250506020610ff385828601610c5d565b9150509250929050565b7f796f7520617265206e6f742061206d656d626572000000000000000000000000600082015250565b6000611033601483610dda565b915061103e82610ffd565b602082019050919050565b6000602082019050818103600083015261106281611026565b9050919050565b7f6e756d626572206f66206f7074696f6e73206d7573742062652062657477656560008201527f6e203220616e6420380000000000000000000000000000000000000000000000602082015250565b60006110c5602983610dda565b91506110d082611069565b604082019050919050565b600060208201905081810360008301526110f4816110b8565b9050919050565b7f656e642074696d652063616e6e6f7420626520696e2070617374000000000000600082015250565b6000611131601a83610dda565b915061113c826110fb565b602082019050919050565b6000602082019050818103600083015261116081611124565b9050919050565b7f4e487b7100000000000000000000000000000000000000000000000000000000600052602260045260246000fd5b600060028204905060018216806111ae57607f821691505b6020821081036111c1576111c0611167565b5b50919050565b60008190508160005260206000209050919050565b60006020601f8301049050919050565b600082821b905092915050565b6000600883026112297fffffffffffffffffffffffffffffffffffffffffffffffffffffffffffffffff826111ec565b61123386836111ec565b95508019841693508086168417925050509392505050565b6000819050919050565b600061127061126b61126684610c3c565b61124b565b610c3c565b9050919050565b6000819050919050565b61128a83611255565b61129e61129682611277565b8484546111f9565b825550505050565b600090565b6112b36112a6565b6112be818484611281565b505050565b5b818110156112e2576112d76000826112ab565b6001810190506112c4565b5050565b601f821115611327576112f8816111c7565b611301846111dc565b81016020851015611310578190505b61132461131c856111dc565b8301826112c3565b50505b505050565b600082821c905092915050565b600061134a6000198460080261132c565b1980831691505092915050565b60006113638383611339565b9150826002028217905092915050565b61137c82610dcf565b67ffffffffffffffff81111561139557611394610b11565b5b61139f8254611196565b6113aa8282856112e6565b600060209050601f8311600181146113dd57600084156113cb578287015190505b6113d58582611357565b86555061143d565b601f1984166113eb866111c7565b60005b82811015611413578489015182556001820191506020850194506020810190506113ee565b86831015611430578489015161142c601f891682611339565b8355505b6001600288020188555050505b505050505050565b600060208201905061145a6000830184610f1b565b92915050565b7f4e487b7100000000000000000000000000000000000000000000000000000000600052601160045260246000fd5b600061149a82610c3c565b91507fffffffffffffffffffffffffffffffffffffffffffffffffffffffffffffffff82036114cc576114cb611460565b5b600182019050919050565b7f766f746520646f6573206e6f7420657869737400000000000000000000000000600082015250565b600061150d601383610dda565b9150611518826114d7565b602082019050919050565b6000602082019050818103600083015261153c81611500565b9050919050565b7f696e76616c6964206f7074696f6e000000000000000000000000000000000000600082015250565b6000611579600e83610dda565b915061158482611543565b602082019050919050565b600060208201905081810360008301526115a88161156c565b9050919050565b7f796f75206861766520616c726561647920766f74656400000000000000000000600082015250565b60006115e5601683610dda565b91506115f0826115af565b602082019050919050565b60006020820190508181036000830152611614816115d8565b9050919050565b7f766f74652068617320656e646564000000000000000000000000000000000000600082015250565b6000611651600e83610dda565b915061165c8261161b565b602082019050919050565b6000602082019050818103600083015261168081611644565b9050919050565b7f4e487b7100000000000000000000000000000000000000000000000000000000600052603260045260246000fd5b60006116c182610c3c565b91506116cc83610c3c565b92508282019050808211156116e4576116e3611460565b5b92915050565b7f796f752061726520616c72656164792061206d656d6265720000000000000000600082015250565b6000611720601883610dda565b915061172b826116ea565b602082019050919050565b6000602082019050818103600083015261174f81611713565b905091905056fea264697066735822122050729e284430c35ce5cd279a21155f347f60eaf5f36132a99978e8811c044eed64736f6c63430008130033",
  "linkReferences": {},
  "deployedLinkReferences": {}
}