{
  "_format": "hh-sol-artifact-1",
  "contractName": "VirtualRealEstate",
  "sourceName": "contracts/VirtualRealEstate.sol",
  "abi": [
    {
      "inputs": [],
      "stateMutability": "nonpayable",
      "type": "constructor"
    },
    {
      "inputs": [
        {
          "internalType": "address",
          "name": "sender",
          "type": "address"
        },
        {
          "internalType": "uint256",
          "name": "tokenId",
          "type": "uint256"
        },
        {
          "internalType": "address",
          "name": "owner",
          "type": "address"
        }
      ],
      "name": "ERC721IncorrectOwner",
      "type": "error"
    },
    {
      "inputs": [
        {
          "internalType": "address",
          "name": "operator",
          "type": "address"
        },
        {
          "internalType": "uint256",
          "name": "tokenId",
          "type": "uint256"
        }
      ],
      "name": "ERC721InsufficientApproval",
      "type": "error"
    },
    {
      "inputs": [
        {
          "internalType": "address",
          "name": "approver",
          "type": "address"
        }
      ],
      "name": "ERC721InvalidApprover",
      "type": "error"
    },
    {
      "inputs": [
        {
          "internalType": "address",
          "name": "operator",
          "type": "address"
        }
      ],
      "name": "ERC721InvalidOperator",
      "type": "error"
    },
    {
      "inputs": [
        {
          "internalType": "address",
          "name": "owner",
          "type": "address"
        }
      ],
      "name": "ERC721InvalidOwner",
      "type": "error"
    },
    {
      "inputs": [
        {
          "internalType": "address",
          "name": "receiver",
          "type": "address"
        }
      ],
      "name": "ERC721InvalidReceiver",
      "type": "error"
    },
    {
      "inputs": [
        {
          "internalType": "address",
          "name": "sender",
          "type": "address"
        }
      ],
      "name": "ERC721InvalidSender",
      "type": "error"
    },
    {
      "inputs": [
        {
          "internalType": "uint256",
          "name": "tokenId",
          "type": "uint256"
        }
      ],
      "name": "ERC721NonexistentToken",
      "type": "error"
    },
    {
      "inputs": [
        {
          "internalType": "address",
          "name": "owner",
          "type": "address"
        }
      ],
      "name": "OwnableInvalidOwner",
      "type": "error"
    },
    {
      "inputs": [
        {
          "internalType": "address",
          "name": "account",
          "type": "address"
        }
      ],
      "name": "OwnableUnauthorizedAccount",
      "type": "error"
    },
    {
      "anonymous": false,
      "inputs": [
        {
          "indexed": true,
          "internalType": "address",
          "name": "owner",
          "type": "address"
        },
        {
          "indexed": true,
          "internalType": "address",
          "name": "approved",
          "type": "address"
        },
        {
          "indexed": true,
          "internalType": "uint256",
          "name": "tokenId",
          "type": "uint256"
        }
      ],
      "name": "Approval",
      "type": "event"
    },
    {
      "anonymous": false,
      "inputs": [
        {
          "indexed": true,
          "internalType": "address",
          "name": "owner",
          "type": "address"
        },
        {
          "indexed": true,
          "internalType": "address",
          "name": "operator",
          "type": "address"
        },
        {
          "indexed": false,
          "internalType": "bool",
          "name": "approved",
          "type": "bool"
        }
      ],
      "name": "ApprovalForAll",
      "type": "event"
    },
    {
      "anonymous": false,
      "inputs": [
        {
          "indexed": false,
          "internalType": "uint256",
          "name": "_fromTokenId",
          "type": "uint256"
        },
        {
          "indexed": false,
          "internalType": "uint256",
          "name": "_toTokenId",
          "type": "uint256"
        }
      ],
      "name": "BatchMetadataUpdate",
      "type": "event"
    },
    {
      "anonymous": false,
      "inputs": [
        {
          "indexed": false,
          "internalType": "uint256",
          "name": "_tokenId",
          "type": "uint256"
        }
      ],
      "name": "MetadataUpdate",
      "type": "event"
    },
    {
      "anonymous": false,
      "inputs": [
        {
          "indexed": true,
          "internalType": "address",
          "name": "previousOwner",
          "type": "address"
        },
        {
          "indexed": true,
          "internalType": "address",
          "name": "newOwner",
          "type": "address"
        }
      ],
      "name": "OwnershipTransferred",
      "type": "event"
    },
    {
      "anonymous": false,
      "inputs": [
        {
          "indexed": true,
          "internalType": "address",
          "name": "from",
          "type": "address"
        },
        {
          "indexed": true,
          "internalType": "address",
          "name": "to",
          "type": "address"
        },
        {
          "indexed": true,
          "internalType": "uint256",
          "name": "tokenId",
          "type": "uint256"
        }
      ],
      "name": "Transfer",
      "type": "event"
    },
    {
      "anonymous": false,
      "inputs": [
        {
          "indexed": true,
          "internalType": "address",
          "name": "to",
          "type": "address"
        },
        {
          "indexed": true,
          "internalType": "uint256",
          "name": "TokenID",
          "type": "uint256"
        }
      ],
      "name": "minted",
      "type": "event"
    },
    {
      "inputs": [
        {
          "internalType": "uint256",
          "name": "",
          "type": "uint256"
        }
      ],
      "name": "TokenURI",
      "outputs": [
        {
          "internalType": "string",
          "name": "",
          "type": "string"
        }
      ],
      "stateMutability": "view",
      "type": "function"
    },
    {
      "inputs": [
        {
          "internalType": "address",
          "name": "to",
          "type": "address"
        },
        {
          "internalType": "uint256",
          "name": "tokenId",
          "type": "uint256"
        }
      ],
      "name": "approve",
      "outputs": [],
      "stateMutability": "nonpayable",
      "type": "function"
    },
    {
      "inputs": [
        {
          "internalType": "address",
          "name": "owner",
          "type": "address"
        }
      ],
      "name": "balanceOf",
      "outputs": [
        {
          "internalType": "uint256",
          "name": "",
          "type": "uint256"
        }
      ],
      "stateMutability": "view",
      "type": "function"
    },
    {
      "inputs": [
        {
          "internalType": "uint256",
          "name": "tokenId",
          "type": "uint256"
        }
      ],
      "name": "getApproved",
      "outputs": [
        {
          "internalType": "address",
          "name": "",
          "type": "address"
        }
      ],
      "stateMutability": "view",
      "type": "function"
    },
    {
      "inputs": [
        {
          "internalType": "uint256",
          "name": "_TokenID",
          "type": "uint256"
        }
      ],
      "name": "getTokenURI",
      "outputs": [
        {
          "internalType": "string",
          "name": "",
          "type": "string"
        }
      ],
      "stateMutability": "view",
      "type": "function"
    },
    {
      "inputs": [
        {
          "internalType": "address",
          "name": "owner",
          "type": "address"
        },
        {
          "internalType": "address",
          "name": "operator",
          "type": "address"
        }
      ],
      "name": "isApprovedForAll",
      "outputs": [
        {
          "internalType": "bool",
          "name": "",
          "type": "bool"
        }
      ],
      "stateMutability": "view",
      "type": "function"
    },
    {
      "inputs": [
        {
          "internalType": "address",
          "name": "_to",
          "type": "address"
        },
        {
          "internalType": "string",
          "name": "_tokenURI",
          "type": "string"
        }
      ],
      "name": "mintWithURI",
      "outputs": [],
      "stateMutability": "nonpayable",
      "type": "function"
    },
    {
      "inputs": [],
      "name": "name",
      "outputs": [
        {
          "internalType": "string",
          "name": "",
          "type": "string"
        }
      ],
      "stateMutability": "view",
      "type": "function"
    },
    {
      "inputs": [],
      "name": "owner",
      "outputs": [
        {
          "internalType": "address",
          "name": "",
          "type": "address"
        }
      ],
      "stateMutability": "view",
      "type": "function"
    },
    {
      "inputs": [
        {
          "internalType": "uint256",
          "name": "tokenId",
          "type": "uint256"
        }
      ],
      "name": "ownerOf",
      "outputs": [
        {
          "internalType": "address",
          "name": "",
          "type": "address"
        }
      ],
      "stateMutability": "view",
      "type": "function"
    },
    {
      "inputs": [],
      "name": "renounceOwnership",
      "outputs": [],
      "stateMutability": "nonpayable",
      "type": "function"
    },
    {
      "inputs": [
        {
          "internalType": "address",
          "name": "from",
          "type": "address"
        },
        {
          "internalType": "address",
          "name": "to",
          "type": "address"
        },
        {
          "internalType": "uint256",
          "name": "tokenId",
          "type": "uint256"
        }
      ],
      "name": "safeTransferFrom",
      "outputs": [],
      "stateMutability": "nonpayable",
      "type": "function"
    },
    {
      "inputs": [
        {
          "internalType": "address",
          "name": "from",
          "type": "address"
        },
        {
          "internalType": "address",
          "name": "to",
          "type": "address"
        },
        {
          "internalType": "uint256",
          "name": "tokenId",
          "type": "uint256"
        },
        {
          "internalType": "bytes",
          "name": "data",
          "type": "bytes"
        }
      ],
      "name": "safeTransferFrom",
      "outputs": [],
      "stateMutability": "nonpayable",
      "type": "function"
    },
    {
      "inputs": [
        {
          "internalType": "address",
          "name": "operator",
          "type": "address"
        },
        {
          "internalType": "bool",
          "name": "approved",
          "type": "bool"
        }
      ],
      "name": "setApprovalForAll",
      "outputs": [],
      "stateMutability": "nonpayable",
      "type": "function"
    },
    {
      "inputs": [
        {
          "internalType": "bytes4",
          "name": "interfaceId",
          "type": "bytes4"
        }
      ],
      "name": "supportsInterface",
      "outputs": [
        {
          "internalType": "bool",
          "name": "",
          "type": "bool"
        }
      ],
      "stateMutability": "view",
      "type": "function"
    },
    {
      "inputs": [],
      "name": "symbol",
      "outputs": [
        {
          "internalType": "string",
          "name": "",
          "type": "string"
        }
      ],
      "stateMutability": "view",
      "type": "function"
    },
    {
      "inputs": [
        {
          "internalType": "uint256",
          "name": "tokenId",
          "type": "uint256"
        }
      ],
      "name": "tokenURI",
      "outputs": [
        {
          "internalType": "string",
          "name": "",
          "type": "string"
        }
      ],
      "stateMutability": "view",
      "type": "function"
    },
    {
      "inputs": [
        {
          "internalType": "address",
          "name": "from",
          "type": "address"
        },
        {
          "internalType": "address",
          "name": "to",
          "type": "address"
        },
        {
          "internalType": "uint256",
          "name": "tokenId",
          "type": "uint256"
        }
      ],
      "name": "transferFrom",
      "outputs": [],
      "stateMutability": "nonpayable",
      "type": "function"
    },
    {
      "inputs": [
        {
          "internalType": "address",
          "name": "newOwner",
          "type": "address"
        }
      ],
      "name": "transferOwnership",
      "outputs": [],
      "stateMutability": "nonpayable",
      "type": "function"
    }
  ],
  "bytecode": "0x608060405260006009553480156200001657600080fd5b50336040518060400160405280600f81526020017f5265616c457374617465546f6b656e00000000000000000000000000000000008152506040518060400160405280600381526020017f5245540000000000000000000000000000000000000000000000000000000000815250816000908162000095919062000477565b508060019081620000a7919062000477565b505050600073ffffffffffffffffffffffffffffffffffffffff168173ffffffffffffffffffffffffffffffffffffffff16036200011f5760006040517f1e4fbdf7000000000000000000000000000000000000000000000000000000008152600401620001169190620005a3565b60405180910390fd5b62000130816200013760201b60201c565b50620005c0565b6000600760009054906101000a900473ffffffffffffffffffffffffffffffffffffffff16905081600760006101000a81548173ffffffffffffffffffffffffffffffffffffffff021916908373ffffffffffffffffffffffffffffffffffffffff1602179055508173ffffffffffffffffffffffffffffffffffffffff168173ffffffffffffffffffffffffffffffffffffffff167f8be0079c531659141344cd1fd0a4f28419497f9722a3daafe3b4186f6b6457e060405160405180910390a35050565b600081519050919050565b7f4e487b7100000000000000000000000000000000000000000000000000000000600052604160045260246000fd5b7f4e487b7100000000000000000000000000000000000000000000000000000000600052602260045260246000fd5b600060028204905060018216806200027f57607f821691505b60208210810362000295576200029462000237565b5b50919050565b60008190508160005260206000209050919050565b60006020601f8301049050919050565b600082821b905092915050565b600060088302620002ff7fffffffffffffffffffffffffffffffffffffffffffffffffffffffffffffffff82620002c0565b6200030b8683620002c0565b95508019841693508086168417925050509392505050565b6000819050919050565b6000819050919050565b600062000358620003526200034c8462000323565b6200032d565b62000323565b9050919050565b6000819050919050565b620003748362000337565b6200038c62000383826200035f565b848454620002cd565b825550505050565b600090565b620003a362000394565b620003b081848462000369565b505050565b5b81811015620003d857620003cc60008262000399565b600181019050620003b6565b5050565b601f8211156200042757620003f1816200029b565b620003fc84620002b0565b810160208510156200040c578190505b620004246200041b85620002b0565b830182620003b5565b50505b505050565b600082821c905092915050565b60006200044c600019846008026200042c565b1980831691505092915050565b600062000467838362000439565b9150826002028217905092915050565b6200048282620001fd565b67ffffffffffffffff8111156200049e576200049d62000208565b5b620004aa825462000266565b620004b7828285620003dc565b600060209050601f831160018114620004ef5760008415620004da578287015190505b620004e6858262000459565b86555062000556565b601f198416620004ff866200029b565b60005b82811015620005295784890151825560018201915060208501945060208101905062000502565b8683101562000549578489015162000545601f89168262000439565b8355505b6001600288020188555050505b505050505050565b600073ffffffffffffffffffffffffffffffffffffffff82169050919050565b60006200058b826200055e565b9050919050565b6200059d816200057e565b82525050565b6000602082019050620005ba600083018462000592565b92915050565b6127ff80620005d06000396000f3fe608060405234801561001057600080fd5b50600436106101215760003560e01c8063658b9665116100ad578063a22cb46511610071578063a22cb4651461031a578063b88d4fde14610336578063c87b56dd14610352578063e985e9c514610382578063f2fde38b146103b257610121565b8063658b96651461027457806370a08231146102a4578063715018a6146102d45780638da5cb5b146102de57806395d89b41146102fc57610121565b80630e980602116100f45780630e980602146101c057806323b872dd146101dc5780633bb3a24d146101f857806342842e0e146102285780636352211e1461024457610121565b806301ffc9a71461012657806306fdde0314610156578063081812fc14610174578063095ea7b3146101a4575b600080fd5b610140600480360381019061013b9190611c6b565b6103ce565b60405161014d9190611cb3565b60405180910390f35b61015e61042f565b60405161016b9190611d5e565b60405180910390f35b61018e60048036038101906101899190611db6565b6104c1565b60405161019b9190611e24565b60405180910390f35b6101be60048036038101906101b99190611e6b565b6104dd565b005b6101da60048036038101906101d59190611fe0565b6104f3565b005b6101f660048036038101906101f1919061203c565b610589565b005b610212600480360381019061020d9190611db6565b61068b565b60405161021f9190611d5e565b60405180910390f35b610242600480360381019061023d919061203c565b610730565b005b61025e60048036038101906102599190611db6565b610750565b60405161026b9190611e24565b60405180910390f35b61028e60048036038101906102899190611db6565b610762565b60405161029b9190611d5e565b60405180910390f35b6102be60048036038101906102b9919061208f565b610802565b6040516102cb91906120cb565b60405180910390f35b6102dc6108bc565b005b6102e66108d0565b6040516102f39190611e24565b60405180910390f35b6103046108fa565b6040516103119190611d5e565b60405180910390f35b610334600480360381019061032f9190612112565b61098c565b005b610350600480360381019061034b91906121f3565b6109a2565b005b61036c60048036038101906103679190611db6565b6109bf565b6040516103799190611d5e565b60405180910390f35b61039c60048036038101906103979190612276565b610ad2565b6040516103a99190611cb3565b60405180910390f35b6103cc60048036038101906103c7919061208f565b610b66565b005b6000634906490660e01b7bffffffffffffffffffffffffffffffffffffffffffffffffffffffff1916827bffffffffffffffffffffffffffffffffffffffffffffffffffffffff19161480610428575061042782610bec565b5b9050919050565b60606000805461043e906122e5565b80601f016020809104026020016040519081016040528092919081815260200182805461046a906122e5565b80156104b75780601f1061048c576101008083540402835291602001916104b7565b820191906000526020600020905b81548152906001019060200180831161049a57829003601f168201915b5050505050905090565b60006104cc82610cce565b506104d682610d56565b9050919050565b6104ef82826104ea610d93565b610d9b565b5050565b6104fb610dad565b600160095461050a9190612345565b60098190555061051c82600954610e34565b80600860006009548152602001908152602001600020908161053e9190612525565b506009548273ffffffffffffffffffffffffffffffffffffffff167fb7656808f0e04b4af7a20f7ef1caa7669f0d781f1ca4cba31a3ba467880766c960405160405180910390a35050565b600073ffffffffffffffffffffffffffffffffffffffff168273ffffffffffffffffffffffffffffffffffffffff16036105fb5760006040517f64a0ae920000000000000000000000000000000000000000000000000000000081526004016105f29190611e24565b60405180910390fd5b600061060f838361060a610d93565b610e52565b90508373ffffffffffffffffffffffffffffffffffffffff168173ffffffffffffffffffffffffffffffffffffffff1614610685578382826040517f64283d7b00000000000000000000000000000000000000000000000000000000815260040161067c939291906125f7565b60405180910390fd5b50505050565b60606008600083815260200190815260200160002080546106ab906122e5565b80601f01602080910402602001604051908101604052809291908181526020018280546106d7906122e5565b80156107245780601f106106f957610100808354040283529160200191610724565b820191906000526020600020905b81548152906001019060200180831161070757829003601f168201915b50505050509050919050565b61074b838383604051806020016040528060008152506109a2565b505050565b600061075b82610cce565b9050919050565b60086020528060005260406000206000915090508054610781906122e5565b80601f01602080910402602001604051908101604052809291908181526020018280546107ad906122e5565b80156107fa5780601f106107cf576101008083540402835291602001916107fa565b820191906000526020600020905b8154815290600101906020018083116107dd57829003601f168201915b505050505081565b60008073ffffffffffffffffffffffffffffffffffffffff168273ffffffffffffffffffffffffffffffffffffffff16036108755760006040517f89c62b6400000000000000000000000000000000000000000000000000000000815260040161086c9190611e24565b60405180910390fd5b600360008373ffffffffffffffffffffffffffffffffffffffff1673ffffffffffffffffffffffffffffffffffffffff168152602001908152602001600020549050919050565b6108c4610dad565b6108ce600061106c565b565b6000600760009054906101000a900473ffffffffffffffffffffffffffffffffffffffff16905090565b606060018054610909906122e5565b80601f0160208091040260200160405190810160405280929190818152602001828054610935906122e5565b80156109825780601f1061095757610100808354040283529160200191610982565b820191906000526020600020905b81548152906001019060200180831161096557829003601f168201915b5050505050905090565b61099e610997610d93565b8383611132565b5050565b6109ad848484610589565b6109b9848484846112a1565b50505050565b60606109ca82610cce565b5060006006600084815260200190815260200160002080546109eb906122e5565b80601f0160208091040260200160405190810160405280929190818152602001828054610a17906122e5565b8015610a645780601f10610a3957610100808354040283529160200191610a64565b820191906000526020600020905b815481529060010190602001808311610a4757829003601f168201915b505050505090506000610a75611458565b90506000815103610a8a578192505050610acd565b600082511115610abf578082604051602001610aa792919061266a565b60405160208183030381529060405292505050610acd565b610ac88461146f565b925050505b919050565b6000600560008473ffffffffffffffffffffffffffffffffffffffff1673ffffffffffffffffffffffffffffffffffffffff16815260200190815260200160002060008373ffffffffffffffffffffffffffffffffffffffff1673ffffffffffffffffffffffffffffffffffffffff16815260200190815260200160002060009054906101000a900460ff16905092915050565b610b6e610dad565b600073ffffffffffffffffffffffffffffffffffffffff168173ffffffffffffffffffffffffffffffffffffffff1603610be05760006040517f1e4fbdf7000000000000000000000000000000000000000000000000000000008152600401610bd79190611e24565b60405180910390fd5b610be98161106c565b50565b60007f80ac58cd000000000000000000000000000000000000000000000000000000007bffffffffffffffffffffffffffffffffffffffffffffffffffffffff1916827bffffffffffffffffffffffffffffffffffffffffffffffffffffffff19161480610cb757507f5b5e139f000000000000000000000000000000000000000000000000000000007bffffffffffffffffffffffffffffffffffffffffffffffffffffffff1916827bffffffffffffffffffffffffffffffffffffffffffffffffffffffff1916145b80610cc75750610cc6826114d8565b5b9050919050565b600080610cda83611542565b9050600073ffffffffffffffffffffffffffffffffffffffff168173ffffffffffffffffffffffffffffffffffffffff1603610d4d57826040517f7e273289000000000000000000000000000000000000000000000000000000008152600401610d4491906120cb565b60405180910390fd5b80915050919050565b60006004600083815260200190815260200160002060009054906101000a900473ffffffffffffffffffffffffffffffffffffffff169050919050565b600033905090565b610da8838383600161157f565b505050565b610db5610d93565b73ffffffffffffffffffffffffffffffffffffffff16610dd36108d0565b73ffffffffffffffffffffffffffffffffffffffff1614610e3257610df6610d93565b6040517f118cdaa7000000000000000000000000000000000000000000000000000000008152600401610e299190611e24565b60405180910390fd5b565b610e4e828260405180602001604052806000815250611744565b5050565b600080610e5e84611542565b9050600073ffffffffffffffffffffffffffffffffffffffff168373ffffffffffffffffffffffffffffffffffffffff1614610ea057610e9f818486611760565b5b600073ffffffffffffffffffffffffffffffffffffffff168173ffffffffffffffffffffffffffffffffffffffff1614610f3157610ee260008560008061157f565b6001600360008373ffffffffffffffffffffffffffffffffffffffff1673ffffffffffffffffffffffffffffffffffffffff168152602001908152602001600020600082825403925050819055505b600073ffffffffffffffffffffffffffffffffffffffff168573ffffffffffffffffffffffffffffffffffffffff1614610fb4576001600360008773ffffffffffffffffffffffffffffffffffffffff1673ffffffffffffffffffffffffffffffffffffffff168152602001908152602001600020600082825401925050819055505b846002600086815260200190815260200160002060006101000a81548173ffffffffffffffffffffffffffffffffffffffff021916908373ffffffffffffffffffffffffffffffffffffffff160217905550838573ffffffffffffffffffffffffffffffffffffffff168273ffffffffffffffffffffffffffffffffffffffff167fddf252ad1be2c89b69c2b068fc378daa952ba7f163c4a11628f55a4df523b3ef60405160405180910390a4809150509392505050565b6000600760009054906101000a900473ffffffffffffffffffffffffffffffffffffffff16905081600760006101000a81548173ffffffffffffffffffffffffffffffffffffffff021916908373ffffffffffffffffffffffffffffffffffffffff1602179055508173ffffffffffffffffffffffffffffffffffffffff168173ffffffffffffffffffffffffffffffffffffffff167f8be0079c531659141344cd1fd0a4f28419497f9722a3daafe3b4186f6b6457e060405160405180910390a35050565b600073ffffffffffffffffffffffffffffffffffffffff168273ffffffffffffffffffffffffffffffffffffffff16036111a357816040517f5b08ba1800000000000000000000000000000000000000000000000000000000815260040161119a9190611e24565b60405180910390fd5b80600560008573ffffffffffffffffffffffffffffffffffffffff1673ffffffffffffffffffffffffffffffffffffffff16815260200190815260200160002060008473ffffffffffffffffffffffffffffffffffffffff1673ffffffffffffffffffffffffffffffffffffffff16815260200190815260200160002060006101000a81548160ff0219169083151502179055508173ffffffffffffffffffffffffffffffffffffffff168373ffffffffffffffffffffffffffffffffffffffff167f17307eab39ab6107e8899845ad3d59bd9653f200f220920489ca2b5937696c31836040516112949190611cb3565b60405180910390a3505050565b60008373ffffffffffffffffffffffffffffffffffffffff163b1115611452578273ffffffffffffffffffffffffffffffffffffffff1663150b7a026112e5610d93565b8685856040518563ffffffff1660e01b815260040161130794939291906126e3565b6020604051808303816000875af192505050801561134357506040513d601f19601f820116820180604052508101906113409190612744565b60015b6113c7573d8060008114611373576040519150601f19603f3d011682016040523d82523d6000602084013e611378565b606091505b5060008151036113bf57836040517f64a0ae920000000000000000000000000000000000000000000000000000000081526004016113b69190611e24565b60405180910390fd5b805181602001fd5b63150b7a0260e01b7bffffffffffffffffffffffffffffffffffffffffffffffffffffffff1916817bffffffffffffffffffffffffffffffffffffffffffffffffffffffff19161461145057836040517f64a0ae920000000000000000000000000000000000000000000000000000000081526004016114479190611e24565b60405180910390fd5b505b50505050565b606060405180602001604052806000815250905090565b606061147a82610cce565b506000611485611458565b905060008151116114a557604051806020016040528060008152506114d0565b806114af84611824565b6040516020016114c092919061266a565b6040516020818303038152906040525b915050919050565b60007f01ffc9a7000000000000000000000000000000000000000000000000000000007bffffffffffffffffffffffffffffffffffffffffffffffffffffffff1916827bffffffffffffffffffffffffffffffffffffffffffffffffffffffff1916149050919050565b60006002600083815260200190815260200160002060009054906101000a900473ffffffffffffffffffffffffffffffffffffffff169050919050565b80806115b85750600073ffffffffffffffffffffffffffffffffffffffff168273ffffffffffffffffffffffffffffffffffffffff1614155b156116ec5760006115c884610cce565b9050600073ffffffffffffffffffffffffffffffffffffffff168373ffffffffffffffffffffffffffffffffffffffff161415801561163357508273ffffffffffffffffffffffffffffffffffffffff168173ffffffffffffffffffffffffffffffffffffffff1614155b801561164657506116448184610ad2565b155b1561168857826040517fa9fbf51f00000000000000000000000000000000000000000000000000000000815260040161167f9190611e24565b60405180910390fd5b81156116ea57838573ffffffffffffffffffffffffffffffffffffffff168273ffffffffffffffffffffffffffffffffffffffff167f8c5be1e5ebec7d5bd14f71427d1e84f3dd0314c0f7b2291e5b200ac8c7c3b92560405160405180910390a45b505b836004600085815260200190815260200160002060006101000a81548173ffffffffffffffffffffffffffffffffffffffff021916908373ffffffffffffffffffffffffffffffffffffffff16021790555050505050565b61174e83836118f2565b61175b60008484846112a1565b505050565b61176b8383836119eb565b61181f57600073ffffffffffffffffffffffffffffffffffffffff168373ffffffffffffffffffffffffffffffffffffffff16036117e057806040517f7e2732890000000000000000000000000000000000000000000000000000000081526004016117d791906120cb565b60405180910390fd5b81816040517f177e802f000000000000000000000000000000000000000000000000000000008152600401611816929190612771565b60405180910390fd5b505050565b60606000600161183384611aac565b01905060008167ffffffffffffffff81111561185257611851611eb5565b5b6040519080825280601f01601f1916602001820160405280156118845781602001600182028036833780820191505090505b509050600082602001820190505b6001156118e7578080600190039150507f3031323334353637383961626364656600000000000000000000000000000000600a86061a8153600a85816118db576118da61279a565b5b04945060008503611892575b819350505050919050565b600073ffffffffffffffffffffffffffffffffffffffff168273ffffffffffffffffffffffffffffffffffffffff16036119645760006040517f64a0ae9200000000000000000000000000000000000000000000000000000000815260040161195b9190611e24565b60405180910390fd5b600061197283836000610e52565b9050600073ffffffffffffffffffffffffffffffffffffffff168173ffffffffffffffffffffffffffffffffffffffff16146119e65760006040517f73c6ac6e0000000000000000000000000000000000000000000000000000000081526004016119dd9190611e24565b60405180910390fd5b505050565b60008073ffffffffffffffffffffffffffffffffffffffff168373ffffffffffffffffffffffffffffffffffffffff1614158015611aa357508273ffffffffffffffffffffffffffffffffffffffff168473ffffffffffffffffffffffffffffffffffffffff161480611a645750611a638484610ad2565b5b80611aa257508273ffffffffffffffffffffffffffffffffffffffff16611a8a83610d56565b73ffffffffffffffffffffffffffffffffffffffff16145b5b90509392505050565b600080600090507a184f03e93ff9f4daa797ed6e38ed64bf6a1f0100000000000000008310611b0a577a184f03e93ff9f4daa797ed6e38ed64bf6a1f0100000000000000008381611b0057611aff61279a565b5b0492506040810190505b6d04ee2d6d415b85acef81000000008310611b47576d04ee2d6d415b85acef81000000008381611b3d57611b3c61279a565b5b0492506020810190505b662386f26fc100008310611b7657662386f26fc100008381611b6c57611b6b61279a565b5b0492506010810190505b6305f5e1008310611b9f576305f5e1008381611b9557611b9461279a565b5b0492506008810190505b6127108310611bc4576127108381611bba57611bb961279a565b5b0492506004810190505b60648310611be75760648381611bdd57611bdc61279a565b5b0492506002810190505b600a8310611bf6576001810190505b80915050919050565b6000604051905090565b600080fd5b600080fd5b60007fffffffff0000000000000000000000000000000000000000000000000000000082169050919050565b611c4881611c13565b8114611c5357600080fd5b50565b600081359050611c6581611c3f565b92915050565b600060208284031215611c8157611c80611c09565b5b6000611c8f84828501611c56565b91505092915050565b60008115159050919050565b611cad81611c98565b82525050565b6000602082019050611cc86000830184611ca4565b92915050565b600081519050919050565b600082825260208201905092915050565b60005b83811015611d08578082015181840152602081019050611ced565b60008484015250505050565b6000601f19601f8301169050919050565b6000611d3082611cce565b611d3a8185611cd9565b9350611d4a818560208601611cea565b611d5381611d14565b840191505092915050565b60006020820190508181036000830152611d788184611d25565b905092915050565b6000819050919050565b611d9381611d80565b8114611d9e57600080fd5b50565b600081359050611db081611d8a565b92915050565b600060208284031215611dcc57611dcb611c09565b5b6000611dda84828501611da1565b91505092915050565b600073ffffffffffffffffffffffffffffffffffffffff82169050919050565b6000611e0e82611de3565b9050919050565b611e1e81611e03565b82525050565b6000602082019050611e396000830184611e15565b92915050565b611e4881611e03565b8114611e5357600080fd5b50565b600081359050611e6581611e3f565b92915050565b60008060408385031215611e8257611e81611c09565b5b6000611e9085828601611e56565b9250506020611ea185828601611da1565b9150509250929050565b600080fd5b600080fd5b7f4e487b7100000000000000000000000000000000000000000000000000000000600052604160045260246000fd5b611eed82611d14565b810181811067ffffffffffffffff82111715611f0c57611f0b611eb5565b5b80604052505050565b6000611f1f611bff565b9050611f2b8282611ee4565b919050565b600067ffffffffffffffff821115611f4b57611f4a611eb5565b5b611f5482611d14565b9050602081019050919050565b82818337600083830152505050565b6000611f83611f7e84611f30565b611f15565b905082815260208101848484011115611f9f57611f9e611eb0565b5b611faa848285611f61565b509392505050565b600082601f830112611fc757611fc6611eab565b5b8135611fd7848260208601611f70565b91505092915050565b60008060408385031215611ff757611ff6611c09565b5b600061200585828601611e56565b925050602083013567ffffffffffffffff81111561202657612025611c0e565b5b61203285828601611fb2565b9150509250929050565b60008060006060848603121561205557612054611c09565b5b600061206386828701611e56565b935050602061207486828701611e56565b925050604061208586828701611da1565b9150509250925092565b6000602082840312156120a5576120a4611c09565b5b60006120b384828501611e56565b91505092915050565b6120c581611d80565b82525050565b60006020820190506120e060008301846120bc565b92915050565b6120ef81611c98565b81146120fa57600080fd5b50565b60008135905061210c816120e6565b92915050565b6000806040838503121561212957612128611c09565b5b600061213785828601611e56565b9250506020612148858286016120fd565b9150509250929050565b600067ffffffffffffffff82111561216d5761216c611eb5565b5b61217682611d14565b9050602081019050919050565b600061219661219184612152565b611f15565b9050828152602081018484840111156121b2576121b1611eb0565b5b6121bd848285611f61565b509392505050565b600082601f8301126121da576121d9611eab565b5b81356121ea848260208601612183565b91505092915050565b6000806000806080858703121561220d5761220c611c09565b5b600061221b87828801611e56565b945050602061222c87828801611e56565b935050604061223d87828801611da1565b925050606085013567ffffffffffffffff81111561225e5761225d611c0e565b5b61226a878288016121c5565b91505092959194509250565b6000806040838503121561228d5761228c611c09565b5b600061229b85828601611e56565b92505060206122ac85828601611e56565b9150509250929050565b7f4e487b7100000000000000000000000000000000000000000000000000000000600052602260045260246000fd5b600060028204905060018216806122fd57607f821691505b6020821081036123105761230f6122b6565b5b50919050565b7f4e487b7100000000000000000000000000000000000000000000000000000000600052601160045260246000fd5b600061235082611d80565b915061235b83611d80565b925082820190508082111561237357612372612316565b5b92915050565b60008190508160005260206000209050919050565b60006020601f8301049050919050565b600082821b905092915050565b6000600883026123db7fffffffffffffffffffffffffffffffffffffffffffffffffffffffffffffffff8261239e565b6123e5868361239e565b95508019841693508086168417925050509392505050565b6000819050919050565b600061242261241d61241884611d80565b6123fd565b611d80565b9050919050565b6000819050919050565b61243c83612407565b61245061244882612429565b8484546123ab565b825550505050565b600090565b612465612458565b612470818484612433565b505050565b5b818110156124945761248960008261245d565b600181019050612476565b5050565b601f8211156124d9576124aa81612379565b6124b38461238e565b810160208510156124c2578190505b6124d66124ce8561238e565b830182612475565b50505b505050565b600082821c905092915050565b60006124fc600019846008026124de565b1980831691505092915050565b600061251583836124eb565b9150826002028217905092915050565b61252e82611cce565b67ffffffffffffffff81111561254757612546611eb5565b5b61255182546122e5565b61255c828285612498565b600060209050601f83116001811461258f576000841561257d578287015190505b6125878582612509565b8655506125ef565b601f19841661259d86612379565b60005b828110156125c5578489015182556001820191506020850194506020810190506125a0565b868310156125e257848901516125de601f8916826124eb565b8355505b6001600288020188555050505b505050505050565b600060608201905061260c6000830186611e15565b61261960208301856120bc565b6126266040830184611e15565b949350505050565b600081905092915050565b600061264482611cce565b61264e818561262e565b935061265e818560208601611cea565b80840191505092915050565b60006126768285612639565b91506126828284612639565b91508190509392505050565b600081519050919050565b600082825260208201905092915050565b60006126b58261268e565b6126bf8185612699565b93506126cf818560208601611cea565b6126d881611d14565b840191505092915050565b60006080820190506126f86000830187611e15565b6127056020830186611e15565b61271260408301856120bc565b818103606083015261272481846126aa565b905095945050505050565b60008151905061273e81611c3f565b92915050565b60006020828403121561275a57612759611c09565b5b60006127688482850161272f565b91505092915050565b60006040820190506127866000830185611e15565b61279360208301846120bc565b9392505050565b7f4e487b7100000000000000000000000000000000000000000000000000000000600052601260045260246000fdfea264697066735822122001739bae61e082847a56bfc96558f16da27c2b78e071cb7c9105c4427f71c66d64736f6c63430008140033",
  "linkReferences": {},
  "deployedLinkReferences": {}
}